{
  "contractName": "Voting",
  "abi": [
    {
      "inputs": [
        {
          "internalType": "uint256",
          "name": "tokens",
          "type": "uint256"
        },
        {
          "internalType": "uint256",
          "name": "pricePerToken",
          "type": "uint256"
        },
        {
          "internalType": "bytes32[]",
          "name": "candidateNames",
          "type": "bytes32[]"
        }
      ],
      "payable": false,
      "stateMutability": "nonpayable",
      "type": "constructor"
    },
    {
      "constant": true,
      "inputs": [],
      "name": "balanceTokens",
      "outputs": [
        {
          "internalType": "uint256",
          "name": "",
          "type": "uint256"
        }
      ],
      "payable": false,
      "stateMutability": "view",
      "type": "function"
    },
    {
      "constant": true,
      "inputs": [
        {
          "internalType": "uint256",
          "name": "",
          "type": "uint256"
        }
      ],
      "name": "candidateList",
      "outputs": [
        {
          "internalType": "bytes32",
          "name": "",
          "type": "bytes32"
        }
      ],
      "payable": false,
      "stateMutability": "view",
      "type": "function"
    },
    {
      "constant": true,
      "inputs": [],
      "name": "tokenPrice",
      "outputs": [
        {
          "internalType": "uint256",
          "name": "",
          "type": "uint256"
        }
      ],
      "payable": false,
      "stateMutability": "view",
      "type": "function"
    },
    {
      "constant": true,
      "inputs": [],
      "name": "totalTokens",
      "outputs": [
        {
          "internalType": "uint256",
          "name": "",
          "type": "uint256"
        }
      ],
      "payable": false,
      "stateMutability": "view",
      "type": "function"
    },
    {
      "constant": true,
      "inputs": [
        {
          "internalType": "address",
          "name": "",
          "type": "address"
        }
      ],
      "name": "voterInfo",
      "outputs": [
        {
          "internalType": "address",
          "name": "voterAddress",
          "type": "address"
        },
        {
          "internalType": "uint256",
          "name": "tokensBought",
          "type": "uint256"
        }
      ],
      "payable": false,
      "stateMutability": "view",
      "type": "function"
    },
    {
      "constant": true,
      "inputs": [
        {
          "internalType": "bytes32",
          "name": "",
          "type": "bytes32"
        }
      ],
      "name": "votesReceived",
      "outputs": [
        {
          "internalType": "uint256",
          "name": "",
          "type": "uint256"
        }
      ],
      "payable": false,
      "stateMutability": "view",
      "type": "function"
    },
    {
      "constant": false,
      "inputs": [],
      "name": "buy",
      "outputs": [
        {
          "internalType": "uint256",
          "name": "",
          "type": "uint256"
        }
      ],
      "payable": true,
      "stateMutability": "payable",
      "type": "function"
    },
    {
      "constant": false,
      "inputs": [
        {
          "internalType": "bytes32",
          "name": "candidate",
          "type": "bytes32"
        },
        {
          "internalType": "uint256",
          "name": "votesInTokens",
          "type": "uint256"
        }
      ],
      "name": "voteForCandidate",
      "outputs": [],
      "payable": false,
      "stateMutability": "nonpayable",
      "type": "function"
    },
    {
      "constant": true,
      "inputs": [
        {
          "internalType": "bytes32",
          "name": "candidate",
          "type": "bytes32"
        }
      ],
      "name": "indexOfCandidate",
      "outputs": [
        {
          "internalType": "uint256",
          "name": "",
          "type": "uint256"
        }
      ],
      "payable": false,
      "stateMutability": "view",
      "type": "function"
    },
    {
      "constant": true,
      "inputs": [
        {
          "internalType": "bytes32",
          "name": "candidate",
          "type": "bytes32"
        }
      ],
      "name": "totalVotesFor",
      "outputs": [
        {
          "internalType": "uint256",
          "name": "",
          "type": "uint256"
        }
      ],
      "payable": false,
      "stateMutability": "view",
      "type": "function"
    },
    {
      "constant": true,
      "inputs": [],
      "name": "tokensSold",
      "outputs": [
        {
          "internalType": "uint256",
          "name": "",
          "type": "uint256"
        }
      ],
      "payable": false,
      "stateMutability": "view",
      "type": "function"
    },
    {
      "constant": true,
      "inputs": [
        {
          "internalType": "address",
          "name": "user",
          "type": "address"
        }
      ],
      "name": "voterDetails",
      "outputs": [
        {
          "internalType": "uint256",
          "name": "",
          "type": "uint256"
        },
        {
          "internalType": "uint256[]",
          "name": "",
          "type": "uint256[]"
        }
      ],
      "payable": false,
      "stateMutability": "view",
      "type": "function"
    },
    {
      "constant": false,
      "inputs": [
        {
          "internalType": "address payable",
          "name": "account",
          "type": "address"
        }
      ],
      "name": "transferTo",
      "outputs": [],
      "payable": false,
      "stateMutability": "nonpayable",
      "type": "function"
    },
    {
      "constant": true,
      "inputs": [],
      "name": "allCandidates",
      "outputs": [
        {
          "internalType": "bytes32[]",
          "name": "",
          "type": "bytes32[]"
        }
      ],
      "payable": false,
      "stateMutability": "view",
      "type": "function"
    },
    {
      "constant": true,
      "inputs": [],
      "name": "get_owner",
      "outputs": [
        {
          "internalType": "address",
          "name": "",
          "type": "address"
        }
      ],
      "payable": false,
      "stateMutability": "view",
      "type": "function"
    },
    {
      "constant": true,
      "inputs": [],
      "name": "check_balance",
      "outputs": [
        {
          "internalType": "uint256",
          "name": "",
          "type": "uint256"
        }
      ],
      "payable": false,
      "stateMutability": "view",
      "type": "function"
    }
  ],
  "bytecode": "0x60806040523480156200001157600080fd5b50604051620010bc380380620010bc833981810160405260608110156200003757600080fd5b810190808051906020019092919080519060200190929190805160405193929190846401000000008211156200006c57600080fd5b838201915060208201858111156200008357600080fd5b8251866020820283011164010000000082111715620000a157600080fd5b8083526020830192505050908051906020019060200280838360005b83811015620000da578082015181840152602081019050620000bd565b505050509050016040525050508060039080519060200190620000ff9291906200015e565b50826004819055508260058190555081600681905550336000806101000a81548173ffffffffffffffffffffffffffffffffffffffff021916908373ffffffffffffffffffffffffffffffffffffffff160217905550505050620001d8565b8280548282559060005260206000209081019282156200019d579160200282015b828111156200019c5782518255916020019190600101906200017f565b5b509050620001ac9190620001b0565b5090565b620001d591905b80821115620001d1576000816000905550600101620001b7565b5090565b90565b610ed480620001e86000396000f3fe6080604052600436106100f35760003560e01c806381c407151161008a578063b13c744b11610059578063b13c744b14610466578063cdf58d35146104b5578063e4494a0f1461054d578063ecd098b014610578576100f3565b806381c407151461036057806398ba1d46146103cc578063a03fa7e3146103f7578063a6f2ae3a14610448576100f3565b80636b2dc6b5116100c65780636b2dc6b5146102765780637021939f146102bb5780637e1c0c091461030a5780637ff9b59614610335576100f3565b80630ac298dc146100f85780632f265cf71461014f578063518ab2a81461019e5780635938750d146101c9575b600080fd5b34801561010457600080fd5b5061010d6105c7565b604051808273ffffffffffffffffffffffffffffffffffffffff1673ffffffffffffffffffffffffffffffffffffffff16815260200191505060405180910390f35b34801561015b57600080fd5b506101886004803603602081101561017257600080fd5b81019080803590602001909291905050506105f0565b6040518082815260200191505060405180910390f35b3480156101aa57600080fd5b506101b361060d565b6040518082815260200191505060405180910390f35b3480156101d557600080fd5b50610218600480360360208110156101ec57600080fd5b81019080803573ffffffffffffffffffffffffffffffffffffffff16906020019092919050505061061b565b6040518083815260200180602001828103825283818151815260200191508051906020019060200280838360005b83811015610261578082015181840152602081019050610246565b50505050905001935050505060405180910390f35b34801561028257600080fd5b506102b96004803603604081101561029957600080fd5b8101908080359060200190929190803590602001909291905050506106ff565b005b3480156102c757600080fd5b506102f4600480360360208110156102de57600080fd5b8101908080359060200190929190505050610a45565b6040518082815260200191505060405180910390f35b34801561031657600080fd5b5061031f610a5d565b6040518082815260200191505060405180910390f35b34801561034157600080fd5b5061034a610a63565b6040518082815260200191505060405180910390f35b34801561036c57600080fd5b50610375610a69565b6040518080602001828103825283818151815260200191508051906020019060200280838360005b838110156103b857808201518184015260208101905061039d565b505050509050019250505060405180910390f35b3480156103d857600080fd5b506103e1610ac1565b6040518082815260200191505060405180910390f35b34801561040357600080fd5b506104466004803603602081101561041a57600080fd5b81019080803573ffffffffffffffffffffffffffffffffffffffff169060200190929190505050610ac9565b005b610450610bb8565b6040518082815260200191505060405180910390f35b34801561047257600080fd5b5061049f6004803603602081101561048957600080fd5b8101908080359060200190929190505050610d0c565b6040518082815260200191505060405180910390f35b3480156104c157600080fd5b50610504600480360360208110156104d857600080fd5b81019080803573ffffffffffffffffffffffffffffffffffffffff169060200190929190505050610d2d565b604051808373ffffffffffffffffffffffffffffffffffffffff1673ffffffffffffffffffffffffffffffffffffffff1681526020018281526020019250505060405180910390f35b34801561055957600080fd5b50610562610d71565b6040518082815260200191505060405180910390f35b34801561058457600080fd5b506105b16004803603602081101561059b57600080fd5b8101908080359060200190929190505050610d77565b6040518082815260200191505060405180910390f35b60008060009054906101000a900473ffffffffffffffffffffffffffffffffffffffff16905090565b600060026000838152602001908152602001600020549050919050565b600060055460045403905090565b60006060600160008473ffffffffffffffffffffffffffffffffffffffff1673ffffffffffffffffffffffffffffffffffffffff16815260200190815260200160002060010154600160008573ffffffffffffffffffffffffffffffffffffffff1673ffffffffffffffffffffffffffffffffffffffff168152602001908152602001600020600201808054806020026020016040519081016040528092919081815260200182805480156106ef57602002820191906000526020600020905b8154815260200190600101908083116106db575b5050505050905091509150915091565b600061070a83610d77565b90507fffffffffffffffffffffffffffffffffffffffffffffffffffffffffffffffff8114156107a2576040517f08c379a00000000000000000000000000000000000000000000000000000000081526004018080602001828103825260168152602001807f456c2063616e64696461746f206e6f206578697374650000000000000000000081525060200191505060405180910390fd5b6000600160003373ffffffffffffffffffffffffffffffffffffffff1673ffffffffffffffffffffffffffffffffffffffff16815260200190815260200160002060020180549050141561087f5760008090505b60038054905081101561087d57600160003373ffffffffffffffffffffffffffffffffffffffff1673ffffffffffffffffffffffffffffffffffffffff1681526020019081526020016000206002016000908060018154018082558091505090600182039060005260206000200160009091929091909150555080806001019150506107f6565b505b600061091a600160003373ffffffffffffffffffffffffffffffffffffffff1673ffffffffffffffffffffffffffffffffffffffff16815260200190815260200160002060020180548060200260200160405190810160405280929190818152602001828054801561091057602002820191906000526020600020905b8154815260200190600101908083116108fc575b5050505050610deb565b600160003373ffffffffffffffffffffffffffffffffffffffff1673ffffffffffffffffffffffffffffffffffffffff16815260200190815260200160002060010154039050828110156109b9576040517f08c379a0000000000000000000000000000000000000000000000000000000008152600401808060200182810382526026815260200180610e556026913960400191505060405180910390fd5b82600260008681526020019081526020016000206000828254019250508190555082600160003373ffffffffffffffffffffffffffffffffffffffff1673ffffffffffffffffffffffffffffffffffffffff1681526020019081526020016000206002018381548110610a2857fe5b906000526020600020016000828254019250508190555050505050565b60026020528060005260406000206000915090505481565b60045481565b60065481565b60606003805480602002602001604051908101604052809291908181526020018280548015610ab757602002820191906000526020600020905b815481526020019060010190808311610aa3575b5050505050905090565b600047905090565b6000809054906101000a900473ffffffffffffffffffffffffffffffffffffffff1673ffffffffffffffffffffffffffffffffffffffff163373ffffffffffffffffffffffffffffffffffffffff1614610b6e576040517f08c379a0000000000000000000000000000000000000000000000000000000008152600401808060200182810382526024815260200180610e316024913960400191505060405180910390fd5b8073ffffffffffffffffffffffffffffffffffffffff166108fc479081150290604051600060405180830381858888f19350505050158015610bb4573d6000803e3d6000fd5b5050565b6000806006543481610bc657fe5b049050600554811115610c24576040517f08c379a0000000000000000000000000000000000000000000000000000000008152600401808060200182810382526025815260200180610e7b6025913960400191505060405180910390fd5b33600160003373ffffffffffffffffffffffffffffffffffffffff1673ffffffffffffffffffffffffffffffffffffffff16815260200190815260200160002060000160006101000a81548173ffffffffffffffffffffffffffffffffffffffff021916908373ffffffffffffffffffffffffffffffffffffffff16021790555080600160003373ffffffffffffffffffffffffffffffffffffffff1673ffffffffffffffffffffffffffffffffffffffff16815260200190815260200160002060010160008282540192505081905550806005600082825403925050819055508091505090565b60038181548110610d1957fe5b906000526020600020016000915090505481565b60016020528060005260406000206000915090508060000160009054906101000a900473ffffffffffffffffffffffffffffffffffffffff16908060010154905082565b60055481565b600080600090505b600380549050811015610dc1578260038281548110610d9a57fe5b90600052602060002001541415610db45780915050610de6565b8080600101915050610d7f565b507fffffffffffffffffffffffffffffffffffffffffffffffffffffffffffffffff90505b919050565b6000806000905060008090505b8351811015610e2657838181518110610e0d57fe5b6020026020010151820191508080600101915050610df8565b508091505091905056fe4e6f206572657320656c20647565c3b16f2064656c20736d61727420636f6e7472616374456c20766f74616e7465206e6f207469656e6520737566696369656e74657320746f6b656e734e6f2068617920737566696369656e747320746f6b656e73207061726120636f6d70726172a265627a7a72315820a63f1579e794b9182a7cb3346b15c241734d043308f52d27e1549702719cb20864736f6c63430005100032",
  "source": "pragma solidity >=0.4.21; \n//Declaremos la versión del compilador de Solidity. \n\n //Declaramos el smart contract. \ncontract Voting {\n\naddress payable internal voting_owner;\n\n  //Estructura que define las características del votante\n  struct voter {\n    address voterAddress; //Dirección del votante\n    uint tokensBought;    //Número total de tokens que ha comprado el votante\n    uint[] tokensUsedPerCandidate; //Array para realizar el seguimiento de los votos a los candidatos\n  }\n\n  mapping (address => voter) public voterInfo; //Mapping relaciona una dirección con un votante (voter)\n\n  mapping (bytes32 => uint) public votesReceived; //Mapping que realaciona los candidatos con los votos recibidos\n\n  bytes32[] public candidateList; //Array con los candidatos\n\n  uint public totalTokens; //Número total de tokens disponibles para las votaciones\n  uint public balanceTokens; //Número de tokens disponibles para ser comprados\n  uint public tokenPrice; //Precio del token\n\n\n   modifier only_owner(){ //Hacer el contrato \"ownable\" donde el propuetario del contrato tiene ciertos privilegios.\n\t        require(msg.sender == voting_owner, \"No eres el dueño del smart contract\");\n\t        _;\n\t    }\n\n\n  //Constructor que se inicia cuando se desplega el smart contract\n  constructor (uint tokens, uint pricePerToken, bytes32[] memory candidateNames) public {\n    candidateList = candidateNames;\n    totalTokens = tokens;\n    balanceTokens = tokens;\n    tokenPrice = pricePerToken;\n    voting_owner = msg.sender;\n  }\n\n   //Comprar tokens. Intercambio de ether por tokens para poder votar\n  function buy() public payable returns (uint) {\n    uint tokensToBuy = msg.value / tokenPrice;\n    require(tokensToBuy <= balanceTokens, \"No hay suficients tokens para comprar\");\n    voterInfo[msg.sender].voterAddress = msg.sender;\n    voterInfo[msg.sender].tokensBought += tokensToBuy;\n    balanceTokens -= tokensToBuy;\n    return tokensToBuy;\n  }\n\n\n  //Votar por un candidato\n  function voteForCandidate(bytes32 candidate, uint votesInTokens) public {\n    uint index = indexOfCandidate(candidate);\n    require(index != uint(-1), \"El candidato no existe\");\n\n    if (voterInfo[msg.sender].tokensUsedPerCandidate.length == 0) {\n      for(uint i = 0; i < candidateList.length; i++) {\n        voterInfo[msg.sender].tokensUsedPerCandidate.push(0);\n      }\n    }\n\n    //Comprobamos que el votante tiene suficientes tokens\n    uint availableTokens = voterInfo[msg.sender].tokensBought - totalTokensUsed(voterInfo[msg.sender].tokensUsedPerCandidate);\n    require(availableTokens >= votesInTokens, \"El votante no tiene suficientes tokens\");\n\n    votesReceived[candidate] += votesInTokens;\n\n    //Guardamos cuantos tokens se han usado para ese candidato\n    voterInfo[msg.sender].tokensUsedPerCandidate[index] += votesInTokens;\n  }\n\n  //Comprobamos el total de tokenes usado para ese candidato\n  function totalTokensUsed(uint[] memory _tokensUsedPerCandidate) private pure returns (uint) {\n    uint totalUsedTokens = 0;\n    for(uint i = 0; i < _tokensUsedPerCandidate.length; i++) {\n      totalUsedTokens += _tokensUsedPerCandidate[i];\n    }\n    return totalUsedTokens;\n  }\n\n //Comprobar el índice del candidato en la lista de candidatos\n  function indexOfCandidate(bytes32 candidate) public view returns (uint) {\n    for(uint i = 0; i < candidateList.length; i++) {\n      if (candidateList[i] == candidate) {\n        return i;\n      }\n    }\n    return uint(-1);\n  }\n\n  \n //Comprobar cuantos votos tienen un candidato\n  function totalVotesFor(bytes32 candidate) public view returns (uint) {\n    return votesReceived[candidate];\n  }\n\n //Comprobar cuantos tokens se han vendido\n  function tokensSold() public view returns (uint) {\n    return totalTokens - balanceTokens;\n  }\n\n\n  //Consultar información sobre un votante.\n  function voterDetails(address user) public view returns (uint, uint[] memory) {\n    return (voterInfo[user].tokensBought, voterInfo[user].tokensUsedPerCandidate);\n  }\n\n\n  //Enviar el ether recaudado de la votación a una dirección. Solo el propietario puede ejecutar esta función\n  function transferTo(address payable account) public only_owner {\n    account.transfer(address(this).balance);\n  }\n\n\n  //Consultar la lista de candidatos\n  function allCandidates() public view  returns (bytes32[] memory) {\n    return candidateList;\n  }\n\n  //Consultar el propietario del contrato\n  function get_owner() public view returns(address){\n            return voting_owner;\n        }\n\n\n   //Consultar balance smart contract\n  function check_balance() public view returns(uint){\n            return address(this).balance;\n        }\n\n}",
  "sourcePath": "/Users/jordiguiraomuns/Documents/GitHub/Voting_DApp/contracts/Voting.sol",
  "compiler": {
    "name": "solc",
    "version": "0.5.16+commit.9c3226ce.Emscripten.clang"
  },
  "schemaVersion": "3.0.23",
  "updatedAt": "2020-06-09T17:42:39.292Z",
  "networkType": "ethereum",
  "devdoc": {
    "methods": {}
  },
  "userdoc": {
    "methods": {}
  }
}